:020000040800F2
:10000000B806002065020008DD0E0008D50E0008C5
:10001000D90E000811040008B51000080000000007
:10002000000000000000000000000000E50E0008D5
:100030001504000800000000E10E0008E90E0008A9
:100040007F0200087F0200087F0200087F0200088C
:100050007F0200087F0200087F0200087F0200087C
:100060007F0200087F0200087F0200087F0200086C
:100070007F0200087F0200087F0200087F0200085C
:100080007F0200087F0200087F0200087F0200084C
:100090007F0200087F0200087F0200087F0200083C
:1000A0007F0200087F0200087F0200087F0200082C
:1000B0007F0200087F0200087F0200087F0200081C
:1000C0007F0200087F0200087F0200087F0200080C
:1000D0007F0200087F0200087F0200087F020008FC
:1000E0007F0200087F0200087F0200087F020008EC
:1000F0007F0200087F0200087F0200087F020008DC
:100100007F0200087F0200087F0200087F020008CB
:100110007F0200087F0200087F0200087F020008BB
:100120007F0200087F0200087F0200087F020008AB
:100130007F02000800000000000000007F020008AD
:100140007F0200087F0200087F0200087F0200088B
:100150007F0200087F0200087F0200087F0200087B
:100160007F0200087F0200087F0200087F0200086B
:100170007F0200087F0200087F02000800000000E4
:10018000000000007F0200080000000000000000E6
:100190007F02000800000000000000007F0200084D
:1001A0000000000000000000000000007F020008C6
:1001B0007F0200087F0200087F0200087F0200081B
:1001C0007F02000800F002F800F03CF80AA090E876
:1001D000000C82448344AAF10107DA4501D100F002
:1001E00031F8AFF2090EBAE80F0013F0010F18BF93
:1001F000FB1A43F001031847DC0F0000FC0F00005E
:10020000103A24BF78C878C1FAD8520724BF30C842
:1002100030C144BF04680C60704700000023002414
:1002200000250026103A28BF78C1FBD8520728BF06
:1002300030C148BF0B6070471FB500F0B2FF1FBD53
:1002400010B510BD00F0A9F81146FFF7F5FF00F05A
:1002500033FF00F0C7F803B4FFF7F2FF03BC00F070
:10026000CFF800000948804709480047FEE7FEE74D
:10027000FEE7FEE7FEE7FEE7FEE7FEE7FEE7FEE756
:1002800004480549054A064B70470000B10F0008B5
:10029000C5010008B8000020B8060020B802002000
:1002A000B802002053EA020C00F069802DE9F04BFF
:1002B0004FF00006002B1FBFB3FA83F503FA05F4D5
:1002C00024FA05F65E4012BF1643B2FA82F502FA2E
:1002D00005F4C5F120051EBF22FA05FC44EA0C0412
:1002E000203556EA044C4FEA144418BF641C4FF002
:1002F00000084FF00009904271EB030C39D300293C
:1003000019BFB1FA81F701FA07F6B0FA80F700FADF
:1003100007F6C7F120071EBF20FA07FC46EA0C06C5
:100320002037B6FBF4FCA7EB0507103F07F01F0BC7
:10033000CBF120062CFA06F60CFA0BFB44BFB346B1
:100340000026202FA4BF5E464FF0000B5BEA060C90
:1003500008BF4FF0010B19EB0B0948EB0608ABFB8C
:10036000027C06FB02CC0BFB03CCC01B71EB0C0127
:10037000C1E70B46024641464846BDE8F08B13B53F
:10038000084318BF4FF0FF300146AFF30080BDE8CF
:100390001C407047704770477047754600F02CF856
:1003A000AE4605006946534620F00700854618B062
:1003B00020B5FFF765FFBDE820404FF000064FF085
:1003C00000074FF000084FF0000BAC46ACE8C00946
:1003D000ACE8C009ACE8C009ACE8C00921F00701ED
:1003E0008D46704710B50446AFF300802046BDE847
:1003F0001040FFF730BF0000004870471000002099
:1004000001491820ABBEFEE726000200704700003D
:10041000FEE7000070470000B0B5044600F0F2F8B7
:10042000054640F20000C2F200000078611C18BFCF
:10043000044400BF00F0E6F8401BA042FAD3B0BD70
:100440002DE9F04F82B000F13E4241F6000502F185
:10045000FF77C4F20205072243F6004E4FEAB726A3
:10046000A84208BF0622C4F2010E062E38BF4FEA8A
:10047000B7220125002600274FF00008009208E06F
:1004800008F101080437B8F1100F06F1020600F078
:10049000A7800C6805FA08F914EA090FF0D0D1F822
:1004A00004B003220BF0030CACF10104B240012CA8
:1004B0006FEA020A10D88268CC6802EA0A02B440E5
:1004C000224382604268CBF3001422EA090204FA54
:1004D00008F42243426005E0BCF1030F02D14FF063
:1004E000030C20E0C2688C6802EA0A02B44022438E
:1004F000BCF1020FC26016D16FF0030202EA58028B
:100500000244D2F820C007F01C050F230C69AB4051
:100510002CEA030304FA05F52B431362D1F804B067
:1005200001250BF0030C02680CFA06F302EA0A023A
:100530001A431BF4403F0260A2D0002243F644035A
:100540000192C4F202031A684FF6084C42F480424A
:100550001A601A68CFF6FF7C02F480420192019A79
:1005600028F00302724452F80C3007F00C050F24F7
:10057000AC40A343009C04FA05F52B4342F80C3031
:10058000DEF808204B6842EA090543F60C4CDC0211
:1005900058BF22EA0905CEF80850C4F2010CDCF875
:1005A00000209C0242EA090558BF22EA0905CCF85E
:1005B0000050DEF804209C0342EA090558BF22EAF5
:1005C0000905CEF80450DEF80020DB0342EA0905F5
:1005D00058BF22EA0905CEF80050012550E700BFB8
:1005E00002B0BDE8F08F0000426902EA01039143C6
:1005F00041EA034181617047002A08BF0904816113
:100600007047000040F2B400C2F20000006870477A
:1006100040F2000040F2B401C2F20000C2F2000158
:1006200000780A68104408607047000080B543F6FF
:100630000040C4F20200016841F4007101600168E9
:1006400041F480610160016841F480710160032020
:1006500000F076F8002000F005F800F027F8002000
:1006600080BD000070B540F20006C2F2000640F204
:1006700008013278C2F200014FF47A730968B3FBC3
:10068000F2F20446B1FBF2F1084600F0A7FB0F2C92
:100690004FF0010508D838B94FF0FF30214600224D
:1006A000002500F021F87460284670BD82B000205B
:1006B00043F640010190C4F202014A6842F48042CC
:1006C0004A604A6802F480420192019A00900868E8
:1006D00040F080500860086800F08050009000985A
:1006E000072002B000F02CB810B54EF60C5CCEF22C
:1006F000000CDCF80030C3F3022E8EF00704042C4B
:1007000028BF0424BEF103034FF0FF3E0EFA04F4A9
:1007100038BF0023A14399400EFA03F39A431143D3
:1007200000F00F0200F160430901043A03F564434D
:100730006244002848BF02F10C03197010BD00008C
:100740004EF60C51CEF200010A684FF6FF031A4034
:1007500060F30A2242F0806040F0FD70086070474C
:1007600070B582B00020019043F64000C4F2020050
:100770000168402641F0805101600068C4F20E26F5
:1007800000F080500190019847F204050120C4F266
:1007900000053060FFF736FF044600BF2868C0033D
:1007A00006D4FFF72FFF001BB0F57A7FF6D90EE0D5
:1007B00001207060FFF726FF044600BF2868800311
:1007C00008D4FFF71FFF001BB0F57A7FF6D903208E
:1007D00002B070BD002002B070BD00002DE9F041F4
:1007E000002800F08B8043F60808C4F20208044693
:1007F000D8F8F8030D4600F00F00884207D288F8B9
:10080000F853D8F8F80300F00F00A84276D120681A
:10081000810717D5410705D5D8F8001041F4E051FC
:10082000C8F80010010705D5D8F8001041F4604160
:10083000C8F80010D8F80010A26821F0F0011143A8
:10084000C8F80010C0073FD1D8F8F80300F00F0037
:10085000A84207D988F8F853D8F8F80300F00F0039
:10086000A8424BD12068410707D5D8F80010E268AC
:1008700021F4E0511143C8F80010000708D5D8F85A
:100880000000216920F4604040EAC100C8F800007F
:1008900000F07CF8D8F8001041F2BC12C1F303114B
:1008A000C0F60002515C40F2080220FA01F140F269
:1008B0000400C2F200000068C2F200021160FFF7FB
:1008C000D1FE0020BDE8F0816068811E022907D2B8
:1008D00058F8081C89015CBF0120BDE8F08111E0D7
:1008E000012807D158F8081C89035CBF0120BDE826
:1008F000F08107E058F8081C890703D40120BDE8FF
:10090000F08100BFD8F8001021F003010843C8F8B7
:100910000000FFF777FE064641F28837D8F800005E
:10092000616800F00C00B0EB810F8DD0FFF76AFE1C
:10093000801BB842F2D90320BDE8F08140F20800E4
:1009400043F60801C2F20000C4F20201006809681F
:1009500041F2CC12C1F38221C0F60002515CC840C2
:100960007047000040F2080043F60801C2F20000A0
:10097000C4F202010068096841F2CC12C1F34231AD
:10098000C0F60002515CC8407047000010B543F645
:100990000404C4F202046068C0F3810142F2004022
:1009A000C0F2F400DFE801F04402081841F2002030
:1009B000C0F27A0010BD00BF216801F03F0221683B
:1009C00023684902C3F3881116D4A1FB0001002358
:1009D000FFF768FC17E000BF216801F03F022168C3
:1009E00023684902C3F3881116D4A1FB0001002338
:1009F000FFF758FC17E000BF41F20020C0F27A0078
:100A00004843B0FBF2F021680222C1F3014102EB3E
:100A10004101B0FBF1F010BD41F20020C0F27A00BC
:100A20004843B0FBF2F02168C1F30271B0FBF1F072
:100A300010BD00002DE9F04182B0002800F0968042
:100A40000446007843F60006C007C4F202062BD025
:100A5000B06800F00C00042820D0B06800F00C0052
:100A6000082802D17068400218D4B06800F00C0069
:100A70000C2802D17068400210D46068B0F5803F45
:100A800007D0B0F5A02F40F03B81306840F48020C3
:100A90003060306840F4803030603BE13068800383
:100AA00002D56068002861D02078800722D5B06820
:100AB00010F00C0F11D0B06800F00C00082802D123
:100AC0007068400209D5B06800F00C000C2840F0B6
:100AD0009F807068400200F19B803068800702D5DB
:100AE000E068012842D13068216920F0F80040EA2E
:100AF000C1003060207800073CD42078400751D4F2
:100B0000A56985B3B06800F00C00082840F0A88003
:100B1000012D2BD07068E16900F480028A4225D152
:100B2000216A00F03F028A4220D147F6C071626A12
:100B30000140B1EB821F19D1A16A4FF6FF73C903BF
:100B4000994300F44032A1F580318A420ED1E16A26
:100B500000F07062B2EB016F08D1216B00F0E04051
:100B6000B0EB017F02D1002034E100BF012002B0D0
:100B7000BDE8F0816069002840F20000C4F247201F
:100B80005ED00121C0F8801EFFF73CFD054600BF86
:100B9000706F8007B1D4FFF735FD401B0228F7D9ED
:100BA000C5E000BF306C10F080580AD100200190E1
:100BB000306C40F080503064306C00F08050019018
:100BC000019847F20007C4F200073868C00511D445
:100BD000386840F480703860FFF714FD054600BFA8
:100BE0003868C00506D4FFF70DFD401B0228F7D971
:100BF0009DE000BFA068012805D0052852D1306FC4
:100C000040F004003067306F40F00100306753E07F
:100C1000E068002860D00020C4F247200121016074
:100C2000FFF7F0FC054600BF306880073FF55BAF7B
:100C3000FFF7E8FC401B02284FF00300F4D9C9E09D
:100C40000021C0F8801EFFF7DDFC0546706F8007AD
:100C50007FF553AFFFF7D6FC401B0228F6D966E0BC
:100C60000027C4F2472700203866FFF7CBFC022D8F
:100C700005460BD1306880015ED5FFF7C3FC401BF1
:100C800002284FF00300F5D9A4E000BF30688001CE
:100C90007FF569AFFFF7B6FC401B02284FF0030059
:100CA000F4D997E0316F002821F001013167316FED
:100CB00021F00401316763D0FFF7A4FC054641F23F
:100CC000883700BF306F80076CD4FFF79BFC401B58
:100CD000B842F7D92BE000BF0020C4F24720002122
:100CE0000160FFF78FFC0546306880077FF502AF93
:100CF000FFF788FC401B02284FF00300F4D969E09D
:100D00003168002821F480313160316821F480217C
:100D1000316051D0FFF776FC054600BF3068800394
:100D20003FF5C2AEFFF76EFC401B6428F6D90320E6
:100D300002B0BDE8F08100BF04F11C052FCD246B8B
:100D4000084340EA8210D9034FF6FF729143A1F5A0
:100D5000803140EA0560084340EA04707060012079
:100D60003866FFF74FFC0446306880013FF5FBAE64
:100D7000FFF748FC001B02284FF00300F4D929E0DC
:100D8000FFF740FC054641F2883700BF306F80070F
:100D900008D5FFF737FC401BB8424FF00300F5D9E8
:100DA00018E000BFB8F1000F7FF4AAAE306C20F05D
:100DB00080503064A4E600BFFFF724FC054630688D
:100DC00080037FF571AEFFF71DFC401B64284FF0D8
:100DD0000300F4D902B0BDE8F0810000411E0020FC
:100DE000B0EB116F1CBF012070474EF21002CEF223
:100DF000000251604EF62351CEF20001F0230B7039
:100E00000721906011607047002804BF01207047DF
:100E100010B5044690F83D0028B9002084F83C0045
:100E2000204600F021F8242084F83D002068C168A5
:100E300021F40051C160204600F0C4F82068016927
:100E400021F490410161416921F02A014161C168A9
:100E500041F40051C16000202021206484F83D103D
:100E600084F83E1010BD000080B586B0016844F2E1
:100E70000040C4F20000814202D006B080BD00BF35
:100E8000002143F630020191C4F20202136900F519
:100E9000DE3043F400331361136903F4003301932C
:100EA000019B0191136843F001031360126802F083
:100EB00001020192019A0C2201920222CDE9022143
:100EC000032104910721059101A9FFF7B9FA06B0A2
:100ED00080BD0000FEE70000FEE70000FEE7000026
:100EE0007047000070470000FFF792BB80B594B0D8
:100EF000002043F640010C90CDE90A00CDE908003E
:100F00000690CDE90400CDE902000190C4F202018F
:100F10000A6842F080520A60096801F0805101912C
:100F2000019947F200010190C4F200010A6842F4FD
:100F300040420A600968012201F44041019101998F
:100F40000221CDE90D1008200F90B4200A92102242
:100F5000CDE9100107A807910B92CDE91211FFF717
:100F600069FD28B1EFF3108072B600BFFEE700BF45
:100F7000FFF7F6FB20B1EFF3108072B6FEE700BF7B
:100F80000F20029002200390002004904FF4A05004
:100F900005904FF48050069002A80521FFF71EFC33
:100FA00020B1EFF3108072B6FEE700BF14B080BD31
:100FB0004EF68850CEF20000016841F470010160E5
:100FC0007047000010B504460068D4E902C22369E6
:100FD000016921F4405111430161626943EA0C0146
:100FE000E3691143C268194349F20C639A43114300
:100FF000C1604169A26921F4407141F2004311438B
:1010000040F48062C4F201039A42416102D1FFF7C9
:10101000A9FC01E0FFF792FCE16963681922B1F5D0
:10102000004FA0FB020123D15A00DB0FFFF73AF972
:1010300048F21F51C5F2EB11A0FB01235A094FF6EC
:101040009C73C0F6FF7303F1805302FB030032234D
:1010500003EBC000A0FB01014FF4F87000EA11108F
:1010600000EB0210C1F3421108442168886010BDF2
:101070009A009B0FFFF716F948F21F51C5F2EB11CA
:10108000A0FB01235A094FF69C73C0F6FF7302FBC5
:101090000300322303EB0010A0FB0101F02000EA63
:1010A000511000EB0210C1F343110844216888601D
:1010B00010BD0000FEE7000086B00024C4F2020468
:1010C000FFF7B4FAFFF712FF002643F63000CDE930
:1010D00004660096C4F202000168002241F0040197
:1010E00001600168202701F0040100910099009639
:1010F000016841F080010160016801F08001009108
:1011000000990096016841F001010160016801F059
:101110000101009100990096016841F0020101600F
:101120000068202100F00200009000982046FFF7A0
:1011300063FA4FF4005001904FF4041001ADCDE973
:10114000020604F500602946FFF77AF90120CDE98F
:1011500002062046294601970496FFF771F940F2EE
:101160007000A4F5DE31C2F200000C234FF4E1322E
:1011700080E84600C0E90366C0E90536C661FFF7AE
:1011800043FE28B1EFF3108072B600BFFEE700BF48
:1011900020462021FFF728FA4FF47A70FFF73CF938
:1011A000F6E7F1EE100A4FF6FF71C0F2C03120EA07
:1011B000010040F04070E1EE100A704700000000AE
:1011C00000000000010203040607080900000000F7
:1011D00001020304F81100080000002010000000C4
:1011E000000200080812000810000020A8060000F5
:1011F0001C020008000000000100000010000000B8
:081200000024F40000000000CE
:04000005080001C529
:00000001FF
